:100000000C9477000C9432010C9432010C94320160
:100010000C9432010C9432010C9432010C94320194
:100020000C9432010C9432010C9432010C94320184
:100030000C9432010C9432010C9432010C94320174
:100040000C9432010C9432010C9432010C94320164
:100050000C9432010C9432010C9432010C94320154
:100060000C9432010C9432010C9432010C94320144
:100070000C9432010C9432010C9432010C94320134
:100080000C9432010C9432010C9432010C94320124
:100090000C9432010C9432010C9432010C94320114
:1000A0000C9432010C9432010C9432010C94320104
:1000B0000C9432010C9432010C9432010C943201F4
:1000C0000C9432010C9432010C9432010C943201E4
:1000D0000C9432010C9432010C9432010C943201D4
:1000E0000C9432010C94320140004006800011242F
:1000F0001FBECFEFCDBFDFE7DEBFE8EEF0E040E0B0
:1001000019C0B791A79137912791079107FD0EC0AC
:1001100097918791EF01F92FE82F0BBF07900D9270
:10012000A217B307D9F7FE011BBE04C01D92A21788
:10013000B307E1F7ED3EF40721F70E94CA000C94E3
:06014000A100F894FFCFBE
:10014600E0E0F1E126813781A481B5818091100636
:1001560090911106281B390B0E94E900DC01CB01A6
:10016600985FAF4FBF4F072E7CE0B695A795979542
:1001760087957A95D1F7702D809300409093014032
:0E018600A0930240B093034081519140089530
:100194000E94F80081E080930A06C4E0D0E40E9443
:1001A4002E018823E1F30E94A300809304409093DE
:1001B400054083E00E94200188810E9420018091F3
:0E01C40005400E9420018CEF0E942001E8CF30
:1001D200A29FB001B39FC001A39F700D811D112486
:0E01E200911DB29F700D811D1124911D089575
:1001F0000E94180181E0809341048093A0000E9436
:080200000F010E9404010895A2
:10020800E0E2F8E08BE890E08087918780E48683DD
:0602180083E087830895D6
:10021E00E0E0F6E081E0828383E0808382E4808701
:02022E00089531
:10023000609168006C6088E690E00E942801089553
:10024000E0E2F8E0948195FFFDCF809322080895C5
:0C025000DC0128ED209334006C9308952D
:08025C0080910D0681700895E8
:040264000C940000F6
:00000001FF
